:100000000C9406010C9427010C9427010C942701F1
:100010000C9427010C9427010C9427010C942701C0
:100020000C9427010C9427010C9427010C942701B0
:100030000C9427010C9427010C9418030C942701AD
:100040000C9427010C9427010C9427010C94270190
:100050000C9427010C9427010C9427010C94270180
:100060000C9427010C9427010C9427010C94270170
:100070000C9427010C9427010C9427010C94270160
:100080000C9427010C9427010C9427010C94270150
:100090000C9427010C9427010C9427010C94270140
:1000A0000C9427010C9427010C9427010C94270130
:1000B0000C9427010C9427010C9427010C94270120
:1000C0000C9427010C9427010C9427010C94270110
:1000D0000C9427010C9427010C9427010C94270100
:1000E0000C9427010C9427010C9427010C942701F0
:1000F0000C9427010C9427010C9427010C942701E0
:100100000C9427010C9427010C9427010C942701CF
:100110000C9427010C9427010C9427010C942701BF
:100120000C9427010C9427010C9427010C942701AF
:100130000C9427010C9427010C9427010C9427019F
:100140000C9427010C9427010C9427010C9427018F
:100150000C9427010C9427010C9427010C9427017F
:100160000C9427010C9427010C9427010C9427016F
:100170000C9427010C9427010C9427010C9427015F
:100180000C9427010C9427010C9427010C9427014F
:100190000C9427010C9427010C9427010C9427013F
:1001A0000C9427010C9427010C9427010C9427012F
:1001B0000C9427010C9427010C9427010C9427011F
:1001C0000C9427010C9427010C9427010C9427010F
:1001D0000C9427010C9427010C9427010C942701FF
:1001E0000C9427010C9427010C9427010C942701EF
:1001F0000C9427010C9427010C9427010C94BA0647
:100200000C94CE060C945D030C94A60611241FBE1C
:10021000CFEFCDBFDFE9DEBF00E00CBF10E2A0E012
:10022000B0E2E2E2FEE000E00BBF02C007900D92F8
:10023000AE30B107D9F723E2AEE0B0E201C01D92C3
:10024000AD3BB207E1F70E94E2060C940F070C9455
:100250000000FC010396818392832FEF3FEF2383FD
:100260003483858396838783908710820895FC0169
:10027000108611860895CF93DF939C01FB01DC016A
:100280001196CD91DC911297C283D3838C819D818D
:10029000848395838C819D81DC0112966D937C9380
:1002A00013976C837D8320873187F90180818F5F6D
:1002B0008083DF91CF910895CF93DF93EB01488145
:1002C00059814F3F2FEF520721F4FC01A781B085E0
:1002D0000DC0DC01139601C0DF011296ED91FC9177
:1002E00013972081318142175307B0F71296ED9191
:1002F000FC911397EA83FB83C483D583AC83BD83CE
:100300001296CD93DC93139788879987FC012081FF
:100310002F5F2083DF91CF910895CF93DF93FC016E
:10032000A085B185C281D381848195818C839D8391
:10033000C481D581828193818A839B831196CD91DB
:10034000DC911297CE17DF0731F48C819D811196D5
:100350008D939C931297108611868C9181508C936B
:10036000DF91CF91089531E1FC013083319722E292
:1003700020833197A3E3A083319760833197708303
:100380003197108231971082319760E860833197FE
:100390001082319762E06083319763E06083319728
:1003A00064E06083319765E06083319766E0608345
:1003B000319767E06083319768E06083319769E047
:1003C0006083319760E1608331973083319732E108
:1003D0003083319733E13083319734E13083319783
:1003E00035E13083319736E13083319737E130831F
:1003F000319738E13083319739E13083319730E2FA
:100400003083319731E2308331972083319723E273
:1004100020833197408331975083319726E22083A0
:10042000319727E22083319728E22083319729E210
:100430002083319720E32083319721E3208387971E
:10044000089565E080E098E00E941B038EE190E053
:10045000809326089093270861E080E098E00E944E
:100460002103E0EAF0E0828181608283A091B523DC
:10047000B091B623CD91CDBFDD91DEBFFF91EF915D
:10048000DF91CF91BF91AF919F918F917F916F91AC
:100490005F914F913F912F911F910F91FF90EF909E
:1004A000DF90CF90BF90AF909F908F907F906F9094
:1004B0005F904F903F902F901F900F900FBE0F9026
:1004C000089581E008950F920FB6F8940F921F924D
:1004D00011242F923F924F925F926F927F928F9250
:1004E0009F92AF92BF92CF92DF92EF92FF920F93C3
:1004F0001F932F933F934F935F936F937F938F93AC
:100500009F93AF93BF93CF93DF93EF93FF93A0910C
:10051000B523B091B6230DB60D920EB60D920E9482
:100520004006A091B523B091B623CD91CDBFDD910A
:10053000DEBFFF91EF91DF91CF91BF91AF919F917E
:100540008F917F916F915F914F913F912F911F916B
:100550000F91FF90EF90DF90CF90BF90AF909F9062
:100560008F907F906F905F904F903F902F901F9053
:100570000F900FBE0F9008950F920FB6F8940F9240
:100580001F9211242F923F924F925F926F927F920F
:100590008F929F92AF92BF92CF92DF92EF92FF9293
:1005A0000F931F932F933F934F935F936F937F937B
:1005B0008F939F93AF93BF93CF93DF93EF93FF936B
:1005C000A091B523B091B6230DB60D920EB60D9243
:1005D0000E94F50481110E944006A091B523B091BC
:1005E000B623CD91CDBFDD91DEBFFF91EF91DF91BD
:1005F000CF91BF91AF919F918F917F916F915F91BB
:100600004F913F912F911F910F91FF90EF90DF90AD
:10061000CF90BF90AF909F908F907F906F905F90A2
:100620004F903F902F901F900F900FBE0F90089506
:100630000E94BC021895FC019081907F692B608319
:100640000895FC0196819C7F692B66830895CF9362
:10065000DF93EC010E94EF0480910E2090910F2017
:10066000892B31F483E190E280930E2090930F2048
:100670002091102030911120CE01820F931F8135DF
:1006800043E0940770F42817390770F4C0910E20E6
:10069000D0910F20C20FD31F809310209093112070
:1006A00005C0C0E0D0E002C0C0E0D0E00E94AD05CF
:1006B000CE01DF91CF9108950895FFCFE0917D2382
:1006C000F0917E238081811107C08FEF9FEF80938F
:1006D0006723909368230895E0917D23F0917E2312
:1006E0000580F681E02D0680F781E02D82819381DF
:1006F000809367239093682308950F931F93CF935C
:10070000DF93EC0100916F23109170238091B5234A
:100710009091B62302960E948D01C00FD11FE091E7
:10072000B523F091B623C283D383C017D10768F4F1
:100730006091B5237091B62380917B2390917C23A7
:100740006E5F7F4F0E945C0117C06091B52370916E
:10075000B62380917D2390917E236E5F7F4F0E9410
:100760005C018091672390916823C817D90720F412
:10077000C0936723D0936823DF91CF911F910F918E
:1007800008954F925F926F927F928F929F92AF9255
:10079000BF92CF92DF92EF92FF920F93CF93DF93AE
:1007A0004C016B015A012901CA010E9427033C0137
:1007B000892B09F4D9C086E290E00E942703EC015E
:1007C000892B71F06F8A788E81E0A81AB1086A0CC3
:1007D0007B1CD6018C91898F8C91811105C018C02A
:1007E000C3010E945C03C0C0AE01465E5F4FF601CC
:1007F0003196B8E0CB0ED11CCF012191DA012D93B7
:10080000AD01DC018C91882319F0EC15FD05A1F7F1
:1008100018A2043008F003E00E8B6E01B2E0CB0E9C
:10082000D11CC6010E943701CE010C960E943701EF
:10083000C887D98784E090E0801B91098C879D87C9
:10084000CA8BDB8B19A21AA21BA21CA21DA2A20199
:10085000B401C3010E94B30188839983E114F104B8
:1008600019F0F701C083D1830FB6F8940F928091ED
:1008700071238F5F809371238091B5239091B6236C
:10088000892B89F5C093B523D093B623809171232A
:100890008130C9F581E993E20E9429018AE993E256
:1008A0000E94290183EA93E20E9429018CEA93E2E3
:1008B0000E94290188E893E20E9429018FE793E2D0
:1008C0000E94290182E793E20E94290188E893E2CD
:1008D00080937D2390937E238FE793E280937B2305
:1008E00090937C2310C080916D2381110CC0E09106
:1008F000B523F091B62396898E89891720F0C0938D
:10090000B523D093B623809169238F5F80936923A9
:100910008E8990916E23981710F480936E2390E047
:100920009C01220F331F220F331F220F331F820F10
:10093000931FB6018F569C4D0E943B010F900FBE36
:1009400080916D23882361F0E091B523F091B62367
:1009500096898E89981730F40E94630281E005C061
:1009600081E003C081E001C08FEFDF91CF910F9153
:10097000FF90EF90DF90CF90BF90AF909F908F90BF
:100980007F906F905F904F900895EF92FF920F933A
:100990000F2EF5E6EF2EF3E2FF2EF02D00E020E023
:1009A00030E045E550E060E070E28DE593E00E94C4
:1009B000C103813081F4F8948FEF9FEF8093672318
:1009C0009093682381E080936D2310926F2310929F
:1009D00070230E9421020F91FF90EF900895809163
:1009E00064238F5F809364230895DF92EF92FF92D8
:1009F0000F931F93CF93DF9380916423811198C04D
:100A0000E0906F23F09070238FEFE81AF80AE092DD
:100A10006F23F0927023E114F104B9F480917D23E7
:100A200090917E2320917B2330917C2320937D2302
:100A300030937E2380937B2390937C2380916A2341
:100A40008F5F80936A230E945E0380916723909159
:100A50006823E816F90610F4D12C52C0D12CE0918D
:100A60007D23F0917E239081911107C08FEF9FEF3E
:100A7000809367239093682343C0E0917D23F09196
:100A80007E230580F681E02DC681D7812A813B81B6
:100A9000E216F30628F4209367233093682330C0CE
:100AA0008E010E5F1F4FC8010E948D018C899D89A8
:100AB000892B21F0CE010C960E948D012E89809108
:100AC0006E23821710F420936E2330E0C901880F43
:100AD000991F880F991F880F991F820F931FB801C4
:100AE0008F569C4D0E943B01E091B523F091B623B7
:100AF0009E898689981708F4B2CFDD24D394AFCFAE
:100B0000E091B523F091B623868990E0FC01EE0FC9
:100B1000FF1FEE0FFF1FEE0FFF1F8E0F9F1FFC0129
:100B2000EF56FC4D8081823048F0DD24D39406C01E
:100B300080916C238F5F80936C23D12C80916B23E9
:100B4000882311F0DD24D3948D2DDF91CF911F9157
:100B50000F91FF90EF90DF900895DF92EF92FF9258
:100B60000F931F93CF93DF930FB6F8940F9280915A
:100B700064238150809364238091642381115FC03A
:100B800080917123811133C05DC0D7011596ED911D
:100B9000FC911697C681D781CE010C960E948D01DB
:100BA0008E010E5F1F4FC8010E948D012E8980911A
:100BB0006E23821710F420936E2330E0C901880F52
:100BC000991F880F991F880F991F820F931FB801D3
:100BD0008F569C4D0E943B01E091B523F091B623C6
:100BE0009E898689981768F0D0926B230AC0C0E06E
:100BF000D0E00F2EF2E7EF2EF3E2FF2EF02DDD24F2
:100C0000D394F70180818111C0CFCD2B11F00E94C8
:100C10005E03C0916C23CC2351F0D1E00E94F50417
:100C20008111D0936B23C150C9F710926C2380912E
:100C30006B23882331F00E94630281E003C080E0CF
:100C400001C080E00F900FBEDF91CF911F910F91F7
:100C5000FF90EF90DF900895CF93DF93EC01892B05
:100C600051F00E94EF0460E0CE010E947D030E94DB
:100C7000AD05811102C00E946302DF91CF910895FA
:100C800080916423882321F081E080936B23089571
:100C900010926B2320916E23822F90E0FC01EE0FC7
:100CA000FF1FEE0FFF1FEE0FFF1FE80FF91FEF569C
:100CB000FC4D3081311111C02150822F90E0FC0198
:100CC000EE0FFF1FEE0FFF1FEE0FFF1FE80FF91FC4
:100CD000EF56FC4D3081332379F3AC01440F551F9F
:100CE000440F551F440F551F480F591FDA01AF56C7
:100CF000BC4D1196ED91FC9112970280F381E02D8D
:100D00001196ED93FC9312974C565C4DE417F50742
:100D100029F442815381FD0141835283FC01EE0F8E
:100D2000FF1FEE0FFF1FEE0FFF1F8E0F9F1FFC0117
:100D3000EF56FC4D0180F281E02D868197818093F2
:100D4000B5239093B62320936E23089500EE17E009
:100D5000C1E000008091BB239091BC230196809359
:100D6000BB239093BC23F801C78388EE93E00E94D5
:100D70002C06EFCF00EE17E0C2E000008091B9230F
:100D80009091BA2301968093B9239093BA23F801E6
:100D9000C78380ED97E00E942C06EFCF00E616E0B7
:100DA000C0E100008091B7239091B8230196809311
:100DB000B7239093B823F801C78388EC90E00E9492
:100DC0002C06EFCFE0EEF7E081E0818382E08183C3
:100DD00080E180936106E12CF12C00E020E030E01E
:100DE0004CE251E065E070E286EA96E00E94C103C1
:100DF00020E030E044E650E068E070E28AEB96E004
:100E00000E94C10320E030E044E650E06BE070E275
:100E10008EEC96E00E94C1030E94C504FFCFF894B7
:020E2000FFCF02
:0E0E220049444C4500743100743200743300B2
:00000001FF
