:100000000C9406010C9427010C9427010C942701F1
:100010000C9427010C9427010C9427010C942701C0
:100020000C9427010C9427010C9427010C942701B0
:100030000C9427010C9427010C94FB020C942701CB
:100040000C9427010C9427010C9427010C94270190
:100050000C9427010C9427010C9427010C94270180
:100060000C9427010C9427010C9427010C94270170
:100070000C9427010C9427010C9427010C94270160
:100080000C9427010C9427010C9427010C94270150
:100090000C9427010C9427010C9427010C94270140
:1000A0000C9427010C9427010C9427010C94270130
:1000B0000C9427010C9427010C9427010C94270120
:1000C0000C9427010C9427010C9427010C94270110
:1000D0000C9427010C9427010C9427010C94270100
:1000E0000C9427010C9427010C9427010C942701F0
:1000F0000C9427010C9427010C9427010C942701E0
:100100000C9427010C9427010C9427010C942701CF
:100110000C9427010C9427010C9427010C942701BF
:100120000C9427010C9427010C9427010C942701AF
:100130000C9427010C9427010C9427010C9427019F
:100140000C9427010C9427010C9427010C9427018F
:100150000C9427010C9427010C9427010C9427017F
:100160000C9427010C9427010C9427010C9427016F
:100170000C9427010C9427010C9427010C9427015F
:100180000C9427010C9427010C9427010C9427014F
:100190000C9427010C9427010C9427010C9427013F
:1001A0000C9427010C9427010C9427010C9427012F
:1001B0000C9427010C9427010C9427010C9427011F
:1001C0000C9427010C9427010C9427010C9427010F
:1001D0000C9427010C9427010C9427010C942701FF
:1001E0000C9427010C9427010C9427010C942701EF
:1001F0000C9427010C9427010C9427010C942901DD
:100200000C94CA030C943D010C94510111241FBE9F
:10021000CFEFCDBFDFE9DEBF00E00CBF10E2A0E012
:10022000B0E2E4E4FEE000E00BBF02C007900D92F4
:10023000A031B107D9F723E2A0E1B0E201C01D92DD
:10024000AB3BB207E1F70E9465010C9420070C94C8
:10025000000000EE17E0C1E00000809114209091B2
:10026000152001968093142090931520F801C783E0
:1002700088EE93E00E949306EFCF00EE17E0C2E015
:1002800000008091122090911320019680931220FB
:1002900090931320F801C78380ED97E00E949306A6
:1002A000EFCF00E616E0C0E10000809110209091B1
:1002B000112001968093102090931120F801C7839C
:1002C00088EC90E00E949306EFCFE0EEF7E081E04B
:1002D000818382E0818380E180936106A12CB12C2F
:1002E000C12CD12CE12CF12C00E020E030E04CE2DC
:1002F00051E062E070E289E291E00E94020420E0B5
:1003000030E044E650E065E070E28DE391E00E9469
:10031000020420E030E044E650E068E070E281E56D
:1003200091E00E9402040E940A05FFCF31E1FC0126
:100330003083319722E220833197A3E3A083319762
:100340006083319770833197108231971082319793
:1003500060E8608331971082319762E06083319763
:1003600063E06083319764E06083319765E0608388
:10037000319766E06083319767E06083319768E08A
:100380006083319769E06083319760E160833197E2
:100390003083319732E13083319733E130833197C5
:1003A00034E13083319735E13083319736E1308362
:1003B000319737E13083319738E13083319739E134
:1003C0003083319730E23083319731E23083319797
:1003D0002083319723E220833197408331975083E4
:1003E000319726E22083319727E22083319728E254
:1003F0002083319729E22083319720E320833197AE
:1004000021E320838797089565E080E098E00E94CB
:10041000FE028EE190E0809326089093270861E029
:1004200080E098E00E940403E0EAF0E082818160CD
:100430008283A091B923B091BA23CD91CDBFDD9134
:10044000DEBFFF91EF91DF91CF91BF91AF919F916F
:100450008F917F916F915F914F913F912F911F915C
:100460000F91FF90EF90DF90CF90BF90AF909F9053
:100470008F907F906F905F904F903F902F901F9044
:100480000F900FBE0F90089581E008950F920FB660
:10049000F8940F921F9211242F923F924F925F92E5
:1004A0006F927F928F929F92AF92BF92CF92DF9284
:1004B000EF92FF920F931F932F933F934F935F936E
:1004C0006F937F938F939F93AF93BF93CF93DF935C
:1004D000EF93FF93A091B923B091BA230DB60D927B
:1004E0000EB60D920E94B306A091B923B091BA2323
:1004F000CD91CDBFDD91DEBFFF91EF91DF91CF9127
:10050000BF91AF919F918F917F916F915F914F912B
:100510003F912F911F910F91FF90EF90DF90CF901F
:10052000BF90AF909F908F907F906F905F904F9013
:100530003F902F901F900F900FBE0F9008950F9235
:100540000FB6F8940F921F9211242F923F924F9260
:100550005F926F927F928F929F92AF92BF92CF9253
:10056000DF92EF92FF920F931F932F933F934F933E
:100570005F936F937F938F939F93AF93BF93CF932B
:10058000DF93EF93FF93A091B923B091BA230DB6F7
:100590000D920EB60D920E943B0581110E94B3068A
:1005A000A091B923B091BA23CD91CDBFDD91DEBF2B
:1005B000FF91EF91DF91CF91BF91AF919F918F917B
:1005C0007F916F915F914F913F912F911F910F916B
:1005D000FF90EF90DF90CF90BF90AF909F908F9063
:1005E0007F906F905F904F903F902F901F900F9053
:1005F0000FBE0F9008950E949F021895FC019081F4
:10060000907F692B60830895FC0196819C7F692B04
:1006100066830895CF93DF93EC010E9435058091A6
:10062000162090911720892B31F48BE190E2809372
:100630001620909317202091182030911920CE0178
:10064000820F931F813543E0940770F42817390710
:1006500070F4C0911620D0911720C20FD31F809341
:1006600018209093192005C0C0E0D0E002C0C0E07F
:10067000D0E00E941106CE01DF91CF910895089538
:10068000FC010396818392832FEF3FEF2383348312
:10069000858396838783908710820895FC01108656
:1006A00011860895CF93DF939C01FB01DC01119625
:1006B000CD91DC911297C283D3838C819D818483F9
:1006C00095838C819D81DC0112966D937C931397A9
:1006D0006C837D8320873187F90180818F5F8083E0
:1006E000DF91CF910895CF93DF93EB01488159813A
:1006F0004F3F2FEF520721F4FC01A781B0850DC0B9
:10070000DC01139601C0DF011296ED91FC91139765
:100710002081318142175307B0F71296ED91FC9179
:100720001397EA83FB83C483D583AC83BD8312967E
:10073000CD93DC93139788879987FC0120812F5FE5
:100740002083DF91CF910895CF93DF93FC01A085A3
:10075000B185C281D381848195818C839D83C4813D
:10076000D581828193818A839B831196CD91DC917F
:100770001297CE17DF0731F48C819D8111968D93EE
:100780009C931297108611868C9181508C93DF91E7
:10079000CF910895FFCFCF93DF93EC01E091B92380
:1007A000F091BA2382839383809173239091742371
:1007B000C817D90768F46091B9237091BA23809162
:1007C0007F23909180236E5F7F4F0E94730317C039
:1007D0006091B9237091BA238091812390918223F3
:1007E0006E5F7F4F0E9473038091002090910120E3
:1007F000C817D90720F4C0930020D0930120DF91BF
:10080000CF9108954F925F926F927F928F929F92B5
:10081000AF92BF92CF92DF92EF92FF920F931F930E
:10082000CF93DF934C01EB015A01290181E290E063
:100830000E940A033C01009709F4DAC0C114D104F4
:1008400009F0D2C0C5010E940A03F301878B908F83
:10085000892B21F4C3010E943F03CAC0F1E0AF1A03
:10086000B108F3018789908DA80EB91E8881818F08
:100870008881882381F0D3015A96FE0131969E012A
:10088000285F3F4FEF0181918D938881882319F074
:10089000E217F307B9F7F30110A2102F043008F0A4
:1008A00013E0F301168BE3012296CE010E944E0362
:1008B000C3010C960E944E03F3016086718684E0AA
:1008C00090E0811B910984879587628A738AA201CF
:1008D000B401C5010E949601F30180839183E11464
:1008E000F10419F0F701608271820FB6F8940F924B
:1008F000809175238F5F809375238091B9239091A8
:10090000BA23892B89F56092B9237092BA2380911A
:1009100075238130C1F585E993E20E9440038EE999
:1009200093E20E94400387EA93E20E94400380EB37
:1009300093E20E9440038CE893E20E94400383E824
:1009400093E20E94400386E793E20E9440038CE812
:1009500093E2809381239093822383E893E28093B0
:100960007F23909380230FC08091712381110BC04E
:10097000E091B923F091BA238689081720F060929C
:10098000B9237092BA2380916D238F5F80936D237A
:10099000F301868990917223981710F48093722343
:1009A00090E09C01220F331F220F331F220F331FB1
:1009B000820F931FBE018B569C4D0E9452030F90D5
:1009C0000FBE80917123882359F0E091B923F091F3
:1009D000BA238689801730F40E94460281E009C05C
:1009E00081E007C081E005C0FC01C78AD08E36CF08
:1009F0008FEFDF91CF911F910F91FF90EF90DF90DC
:100A0000CF90BF90AF909F908F907F906F905F90AE
:100A10004F900895AF92BF92CF92DF92EF92FF92E4
:100A20000F93A12CB12CC12CD12CE12CF12C00E086
:100A300020E030E045E550E06BE070E28AEC93E0C6
:100A40000E940204813049F4F8948093712310923B
:100A50007323109274230E9404020F91FF90EF9071
:100A6000DF90CF90BF90AF90089580916C238F5FFF
:100A700080936C230895DF92EF92FF920F931F9360
:100A8000CF93DF9380916C238111B6C08091732343
:100A90009091742301968093732390937423E09034
:100AA0007323F0907423E114F10499F5809181236C
:100AB0009091822320917F23309180232093812362
:100AC0003093822380937F239093802380916E23A1
:100AD0008F5F80936E23E0918123F0918223808148
:100AE000811107C08FEF9FEF80930020909301202A
:100AF00010C0E0918123F09182230580F681E02DE2
:100B00000680F781E02D828193818093002090936D
:100B100001208091002090910120E816F90610F440
:100B2000D12C52C0D12CE0918123F091822390816D
:100B3000911107C08FEF9FEF8093002090930120C9
:100B400043C0E0918123F09182230580F681E02D5E
:100B5000C681D7812A813B81E216F30628F42093CF
:100B600000203093012030C08E010E5F1F4FC8015E
:100B70000E94A4038C899D89892B21F0CE010C96BB
:100B80000E94A4032E8980917223821710F420936F
:100B9000722330E0C901880F991F880F991F880FB1
:100BA000991F820F931FB8018B569C4D0E945203D0
:100BB000E091B923F091BA239E898689981708F4A9
:100BC000B2CFDD24D394AFCFE091B923F091BA2313
:100BD000868990E0FC01EE0FFF1FEE0FFF1FEE0F66
:100BE000FF1F8E0F9F1FFC01EB56FC4D8081823052
:100BF00048F0DD24D39406C0809170238F5F8093EA
:100C00007023D12C80916F23882311F0DD24D3949D
:100C10008D2DDF91CF911F910F91FF90EF90DF907D
:100C20000895DF92EF92FF920F931F93CF93DF937C
:100C30000FB6F8940F9280916C23815080936C23AF
:100C400080916C23811162C080917523811133C022
:100C500060C0D7011596ED91FC911697C681D7819A
:100C6000CE010C960E94A4038E010E5F1F4FC80197
:100C70000E94A4032E8980917223821710F420937E
:100C8000722330E0C901880F991F880F991F880FC0
:100C9000991F820F931FB8018B569C4D0E945203DF
:100CA000E091B923F091BA239E898689981758F06C
:100CB000D0926F2308C00F2EF6E7EF2EF3E2FF2E3F
:100CC000F02DDD24D394F70180818111C2CF809172
:100CD0007023882399F080917023882379F0C1E0F4
:100CE0000E943B058111C0936F2380917023815036
:100CF00080937023809170238111F2CF80916F23B4
:100D0000813031F40E94460281E003C080E001C0DE
:100D100080E00F900FBEDF91CF911F910F91FF9058
:100D2000EF90DF900895CF93DF93EC01892BB1F022
:100D30000E9435058091732390917423C80FD91FA9
:100D40008091B9239091BA2302960E94A403CE0108
:100D50000E94CB030E941106811102C00E9446022C
:100D6000DF91CF91089580916C23882321F081E059
:100D700080936F23089510926F238091722390E0E7
:100D8000FC01EE0FFF1FEE0FFF1FEE0FFF1F8E0F78
:100D90009F1FFC01EB56FC4D8081811117C0809193
:100DA00072238150809372238091722390E0FC0122
:100DB000EE0FFF1FEE0FFF1FEE0FFF1F8E0F9F1F87
:100DC000FC01EB56FC4D8081882349F3809172230E
:100DD00090E09C01220F331F220F331F220F331F7D
:100DE000280F391FD901AB56BC4D1196ED91FC91DE
:100DF00012970280F381E02D1196ED93FC931297E8
:100E000028563C4DE217F30729F422813381FD0176
:100E100021833283FC01EE0FFF1FEE0FFF1FEE0F49
:100E2000FF1F8E0F9F1FFC01EB56FC4D0180F281CE
:100E3000E02D868197818093B9239093BA230895FA
:040E4000F894FFCF54
:100E4400FFFF74310074320074330049444C450090
:00000001FF
